:020000040800F2
:1000000000000220AD3A0008F93A0008F93A000869
:10001000F93A0008F93A0008F93A0008000000002F
:10002000000000000000000000000000F93A000895
:10003000F93A000800000000F93A0008F93A00080F
:10004000F93A0008F93A0008F93A0008F93A0008C4
:10005000F93A0008F93A0008F93A0008F93A0008B4
:10006000F93A0008F93A0008F93A0008F93A0008A4
:10007000F93A0008F93A0008F93A0008F93A000894
:10008000F93A0008F93A0008F93A00080D23000887
:1000900011230008F93A000801230008F93A000882
:1000A000F93A0008F93A0008F93A0008F93A000864
:1000B000F93A0008F93A0008F93A0008F93A000854
:1000C000F93A0008F93A0008F93A0008F93A000844
:1000D000F93A0008F93A0008F93A0008F93A000834
:1000E000F93A0008F93A0008F93A0008F93A000824
:1000F000F93A0008F93A0008F93A0008F93A000814
:10010000F93A0008F93A0008F93A0008F93A000803
:10011000F93A0008F93A0008F93A0008F93A0008F3
:10012000F93A0008F93A0008F93A0008F93A0008E3
:10013000F93A000800000000000000002123000838
:1001400025230008F93A000815230008F93A0008A9
:10015000F93A0008F93A0008F93A0008F93A0008B3
:10016000F93A0008F93A0008F93A0008F93A0008A3
:10017000F93A0008F93A0008F93A000800000000CE
:1001800000000000F93A0008000000000000000034
:10019000F93A00080000000000000000F93A0008E9
:1001A000000000000000000000000000F93A000814
:1001B000F93A0008F93A0008F93A0008F93A000853
:1001C000F93A000810B5054C237833B9044B13B144
:1001D0000448AFF300800123237010BDC80C002039
:1001E000000000006C67010808B5034B1BB1034910
:1001F0000348AFF3008008BD00000000CC0C0020D5
:100200006C670108A3F5803A704700BF174B002BBD
:1002100008BF134B9D46FFF7F5FF00218B460F46A5
:100220001348144A121A08F041F80E4B002B00D064
:1002300098470D4B002B00D0984700200021040068
:100240000D000D48002802D00C4802F078FC07F0A1
:10025000E5FD2000290002F001FF02F06DFC00BF67
:1002600000000800000000004D30000800000220DF
:10027000C80C0020481B00203F2B00080000000095
:1002800010B5094B036003F1200280330446C0F827
:10029000BC20C0F8C030BC3006F0A8FE204606F0F6
:1002A00083F9204610BD00BFCC5A0108A0F1BC0064
:1002B000E6E7A0F1C000E3E708B5154C154916487C
:1002C000164D06F0B7FE1649134806F0B3FE224657
:1002D0001449114806F0CBFE13490F4806F0AAFE58
:1002E00010490D482A4606F0C2FE0B4806F090FE63
:1002F0000E492B782278084806F09CFE2978207851
:1003000000F09EF800F0B8F800F0E8FBFAE700BF54
:10031000CC0100202C490108A40D0020E40C002091
:1003200072490108894901088C490108A949010855
:1003300010B50446FFF7A4FF204602F068FD2046F2
:1003400010BDA0F1BC00F3E7A0F1C000F0E7000091
:1003500013B5094C4FF416530093032200230221D6
:10036000204605F0B7FC054A0549204602B0BDE825
:10037000104002F0DFBB00BFE80C0020C8010020E5
:10038000810200080FB407B5064B04AA1B6852F897
:10039000041BD86801920AF001FA03B05DF804EB7F
:1003A00004B07047F002002010B5044630B9074B86
:1003B0000620197000F0E0F9204610BD01460448FF
:1003C000FFF7E0FF4FF0FF30F7E700BFCD0100205F
:1003D000C249010810B50A460C460146044807F018
:1003E0004FFE044B1C70BDE81040042000F0C4B95F
:1003F000C20D0020570F00200EB403B5064B03AA10
:100400001B6852F8041BD86801920AF0C7F902B0C1
:100410005DF804EB03B07047F0020020054B1A783A
:10042000054B1B789A4203D104481146FFF7AABF37
:10043000704700BFCD0100205B0F0020F749010885
:1004400010B5094B094C1970207000F0ABF9FFF79B
:10045000E5FF207800F01CFA054800F071FCBDE8CB
:100460001040044800F072BC5B0F0020CD0100205A
:10047000D5030008A90300082DE9F341934D944CDE
:100480002A7823789A4205D092490120FFF7B4FFD9
:1004900023782B702078012800F09A80022800F041
:1004A000B180002840F00E81032000F081F905465C
:1004B00040B300F009FA074600F00CFA064600F0D7
:1004C0000DFA0546304600F055F9804600F012FA64
:1004D000019000F009FAA91E0346019AC9B24046EC
:1004E00000F012FC304600F043F901467A4800F073
:1004F0002DF979483A46032100F0DCF901232370F5
:10050000032022E0042000F053F918B3734E744B1B
:1005100032781B7873497448744F00F01DF9744B9E
:100520003A7818700146704800F0C4F93378714A7F
:100530007149157001333370DBB2013B01203A7809
:10054000FFF75AFF01232370042002B0BDE8F041F9
:1005500000F01CB9062000F02BF9044668B1012018
:100560006649FFF749FF664B187800F0C9F910B1EA
:100570006448FFF707FF0620E7E700F019F930B1FC
:10058000012061492246FFF737FF2046DDE70120C1
:1005900000F00EF928B15C4901221046FFF72CFF4C
:1005A00024E000F005F930B1574902220120FFF79D
:1005B00023FF0220C9E7052000F0FAF8002800F028
:1005C0008180524905220120FFF716FF0520BCE774
:1005D00000F0EEF8054658B100F0BAF9012803D052
:1005E000052000F0E5F800B1022020700120ACE702
:1005F00000F0DEF8002865D00223237000F0E8F94F
:100600002846A2E700F0D4F8054610B300F062F9DE
:100610000546354800F0ACF80646284600F0A8F834
:10062000864208D13A490120FFF7E6FE00F084F93E
:1006300000232370BDE72C4800F09AF8019028466B
:1006400000F096F8019A334903460120FFF7D4FEE3
:10065000AFE7052000F0ACF8E8B1264E3378092B5F
:1006600008D9214800F084F801462B48FFF78AFE9C
:100670002570ABE729490120FFF7BEFE1B4B1A4846
:100680001A781B4B197800F015F933780133337061
:10069000012323709AE7032000F08AF8054600281A
:1006A0007FF407AF00F084F828B11D492A460120E5
:1006B000FFF7A2FEA4E7012000F07AF810B1184974
:1006C00001226AE702B0BDE8F08100BFC10D002041
:1006D000C00D0020364A01088A0E0020580F002065
:1006E000570F0020C20D00208F0E00205B0F00204E
:1006F000590F00205A0F00205B4A0108784A010870
:10070000CD0100209B4A0108C34A0108C74A0108DD
:10071000F94A01081B4B0108574B0108954B01088A
:10072000AF4B0108024B1A78024B1A70704700BF9A
:10073000C00D0020C10D00200078B0FA80F0400903
:1007400070470078431E5842584170470123037098
:10075000417083700320704710B51C46002303705E
:1007600042702246023007F08BFCA01CC0B210BDC4
:100770004078704702307047034A012303FA00F0C3
:1007800013681843106070475C0F00200449012271
:100790000B6802FA00F023EA00030B60704700BF09
:1007A0005C0F0020014B00221A6070475C0F002094
:1007B000012303FA00F0024B1B681840704700BF8A
:1007C0005C0F0020034B187808B9FFF7D5BF01284C
:1007D000FBD07047600F00200EB403B5064B03AA90
:1007E0001B6852F8041BD868019209F0D7FF02B0C9
:1007F0005DF804EB03B07047F002002070B51346BB
:1008000006460C4615461B4902460120FFF7E4FF49
:1008100007F0BCFD07EE900AFAEEE07AF5EEC07A3A
:10082000F1EE10FA1FDD2A462146134807F028FC96
:10083000124B1E70124B1D7001F0CCFC114B187046
:1008400001F0C2FC104B18802046FFF775FF20B165
:100850000320BDE87040FFF78FBF2046FFF771FF10
:1008600038B10220F5E7BDE8704008490120FFF7E4
:10087000B3BF70BDE44B0108630F0020620F00207E
:10088000980F0020610F0020960F0020064C0108F1
:1008900010B50446002006F091FA07F06FFD2046DF
:1008A000024A0349BDE8104001F02ABCFD070008D8
:1008B000C507000810B5044601F04CFC014B227836
:1008C0001A7010BD600F0020014B1878704700BFF0
:1008D000620F002000487047630F0020014B18781A
:1008E000704700BF980F0020014BB3F9000070471C
:1008F000960F0020014B93F900007047610F002014
:1009000008B501F06DFC30B1024603490120FFF744
:1009100063FF4FF0FF3008BD154C0108036818470E
:100920000B68036070477047024B002205201A7065
:10093000FFF722BF990F002008B5034805F017F90B
:10094000024B00221A7008BDA00F0020990F002052
:10095000014B1878704700BF990F0020C36810B58D
:1009600004460BB19B689847204610BD38B5054634
:10097000064B45F8283B044605F0F9F82846FFF7F2
:10098000EDFF204605F0BEF8204638BD205A01088C
:1009900010B50446FFF7EAFF204602F038FA204679
:1009A00010BD000010B5034B03600446FFF7DEFFE7
:1009B000204610BD945A010838B5CB6804460D4650
:1009C0000BB15B689847EB68E360204638BD0000D8
:1009D00030B589B007F0DAFC1022044600216846E1
:1009E00007F064FC204B00936946204B039304A856
:1009F000FFF7E2FF032094FBF0F000EB4000241A25
:100A00000234E4B207EE904A9FED197AF8EE677A65
:100A100067EE877A17EE900A12F07CFF05460C46C7
:100A200005F010FE134B5A6B22B993F838300BB116
:100A300005F0B2FB1048FFF791FF04A90E48FFF73D
:100A4000BBFF2A4623460B4805F079F805F010FE57
:100A500004A8FFF783FF6846FFF780FF074B0122DA
:100A60001A7009B030BD00BF290900084C4C0108BC
:100A700000247449A00F0020C80F0020990F002007
:100A800010B50446FFF78EFF204602F0C0F920465D
:100A900010BD000010B50C4C204605F00BF82046A8
:100AA0000A4B40F8283B1022002107F0FFFB0123EE
:100AB00084F83830064B23602046064A0649BDE8D4
:100AC000104002F037B800BFA00F0020205A0108E4
:100AD000945A0108C8010020A509000870B5424ACF
:100AE000424C11782378994218BF137013B1022B2E
:100AF0001DD070BD012000F0FDF80028F9D000F0F5
:100B000015F90378302BF4D101221146384800F052
:100B1000ADF8384B36481B68C8219847022323702C
:100B200000F026F9BDE87040012000F0D7B800F0D1
:100B3000FDF8054600F0FEF80646284600F0B4F839
:100B400000F0C2F800F00EF910B9042000F0BCF873
:100B5000012000F0CFF858B100220121244800F014
:100B600085F8244B22481B68C8219847022323702C
:100B7000022000F0BFF888B1691C0025721E2846CB
:100B800007F07EFA02222946194800F083F8194B33
:100B900017481B68C821984702232370032000F0E0
:100BA000A9F868B10421124800F048F8114B104828
:100BB0001B68C8219847032000F090F80023237099
:100BC000042000F097F8002893D00521084800F091
:100BD00035F8084B06481B68C8219847042000F0E8
:100BE0007DF80023237084E7E10F0020E00F002050
:100BF000BC1000208C11002013B50B4B0B4C1A7845
:100C00000B4B1A704FF4165300930322002302215A
:100C1000204605F05FF8074A0749204602B0BDE8C4
:100C2000104001F087BF00BFE00F0020E40F00205C
:100C3000E10F0020C801002081020008012910B541
:100C4000044603D0042908D0207810BD00F8011B09
:100C50000449072207F014FAF6E700F8011B0722FF
:100C60000149F7E7584C0108604C010810B5012311
:100C70009A42044608BF054900F8013B1CBF0449DD
:100C80001A4607F0FDF9207810BD00BF684C010836
:100C9000E75D010810B50223044603700422481CD6
:100CA00007F0EEF9207810BD0378322B07D0332BF4
:100CB00007D0302B4FF0000008BF01207047022002
:100CC0007047032070470000034A012303FA00F035
:100CD00013681843106070478411002004490122F2
:100CE0000B6802FA00F023EA00030B60704700BFB4
:100CF00084110020012303FA00F0024B1B68184006
:100D0000704700BF8411002010B50A460C4601460A
:100D1000044807F0B5F9044B1C70BDE810400220F0
:100D2000FFF7D2BF90110020AA11002000487047A1
:100D300090110020014B1878704700BFAA110020C5
:100D4000014B1860704700BF8C110020014B1860E8
:100D5000704700BF88110020014B00221A707047B5
:100D6000AB110020014B1878704700BFAB11002079
:100D700000B589B010220021684607F097FA164B9B
:100D800000936946154B039304A8FFF715FE05F081
:100D900059FC134B5A6B22B993F838300BB105F05C
:100DA000FBF91048FFF7DAFD04A90E48FFF704FE2F
:100DB0000D4A0B48002304F0C2FE05F059FC04A8BC
:100DC000FFF7CCFD6846FFF7C9FD084B01221A70FA
:100DD00009B05DF804FB00BF590D00084C4C010838
:100DE000B0110020D811002040420F00AB110020AC
:100DF00010B50C4C204604F05DFE20460A4B40F82E
:100E0000283B1022002107F051FA012384F83830E2
:100E1000064B23602046064A0649BDE8104001F013
:100E200089BE00BFB0110020205A0108945A010861
:100E3000C8010020A50900080FB407B5064B04AA95
:100E40001B6852F8041BD868019209F0A7FC03B094
:100E50005DF804EB04B07047F0020020014B18600D
:100E6000704700BFF0110020024B18600248FFF7E6
:100E7000E3BF00BFF8110020DD4C0108024B1860F1
:100E80000248FFF7D9BF00BFF41100206A4C0108E7
:100E900008B500F031FC012808D000F02DFC014617
:100EA0000548FFF7C9FF4FF0FF3008BD002000F0F4
:100EB00077FD0020F9E700BF804C01082DE9F041E3
:100EC000BDF81C50B5F5806F06460C4690461F468F
:100ED00006D319482946FFF7AFFF0620BDE8F08189
:100EE00000F046FC4FFA88F000F04EFC384600F067
:100EF00051FC069800F05AFC204600F033FC6EB915
:100F00000B3C012C0ED8012000F026FC65B9012015
:100F100000F052FC00F074FC0020DFE7012E01D14C
:100F20000C2CF0D00020EFE7002000F045FC284614
:100F300000F048FCEEE700BFF54C010870470000E8
:100F400084B038B504AC84E80F00DDE908540C2CFB
:100F500012D910482146FFF76FFF0C2000F002FC69
:100F600095B90B3C012C13D8012000F0F5FBBDE82E
:100F7000384004B000F044BC052CF1D805482146A7
:100F8000FFF75AFF0620E9E7012D01D10C2CEBD029
:100F90000020EAE7B44C010884B038B504AC84E81A
:100FA0000F009DF831309DF8155033206BB300F0E1
:100FB0002FFE40F04101C9B2332000F01EFE19217E
:100FC0003B2000F01AFE9DF82F309DF832403BB3D5
:100FD0001D21112000F011FE402000F019FE00F04C
:100FE0003301402000F009FE00210F2000F005FE33
:100FF00000210D2000F001FE012D1DD1D4B10520EE
:10100000BDE8384004B000F077BE00F001FE00F00B
:10101000BE0141F00101332000F0EFFD1D21CFE7BB
:101020001F21112000F0E9FD402000F0F1FD00F04B
:101030003F01D6E70620E3E7BDE8384004B070473B
:1010400084B0F8B506AC84E80F000898BDF83260AB
:101050009DF83450BDF842700B9C00F02DFE1D2011
:1010600000F0D6FD9DF831309DF8301041EAC30103
:101070000A9B41EA83119DF8363041EA430141EA77
:101080008501C9B21D2000F0B8FD1E2000F0C0FD92
:10109000C7F3012100F00C0041EA04110143C9B279
:1010A0001E2000F0AAFDF9B21F2000F0A6FD310AB3
:1010B000202000F0A2FDF1B2212000F09EFD25B11C
:1010C0009DF83510222000F098FD9DF837306BB167
:1010D0004B2000F09DFD60F07F01C9B24B2000F075
:1010E0008CFD9DF83810242000F087FD062C4FF071
:1010F00031000FD100F08CFD00F0F80141F0050146
:10110000312000F07AFD0C21BDE8F840372004B012
:1011100000F073BD00F07CFD00F0F80141F0030128
:10112000312000F06AFD0A21EEE78021122000F054
:1011300064BD4021122000F060BD07B5122000F010
:1011400067FD8DF807009DF80700C0F3401003B05D
:101150005DF804FB2021122000F04FBD08B51920D6
:1011600000F056FD030643BF4042C0F385004042F5
:1011700040F3870008BD10B504461A2000F048FD72
:10118000002CB8BF8B3C4FEA2013B4BF00198B383A
:10119000184400B210BD38B50546132000F038FDE4
:1011A00004460146284600F082FD204638BD000076
:1011B0000FB407B5064B04AA1B6852F8041BD86885
:1011C000019209F0EBFA03B05DF804EB04B070474C
:1011D000F002002038B50D46044628B90C48FFF748
:1011E000E7FF4FF0FF3038BD402905D90948FFF728
:1011F000DFFF6FF00100F6E700F084FA0A2005F047
:10120000D1FC2946204600F009FC0020EBE700BF96
:10121000BB4D0108E74D01082DE9F0410D4614468C
:101220009846BDF81870079E00F0A8FA284600F00E
:101230009FFA4FFA88F000F0A7FA384600F0AAFAB1
:10124000304600F0B3FA204600F08CFA4DB90B3C62
:10125000012C0AD8012000F07FFABDE8F04100F02F
:10126000B7BA012D01D10C2CF4D00020F3E7000017
:10127000024B18600248FFF79BBF00BFFC11002023
:10128000854D0108024B18600248FFF791BF00BF6F
:1012900000120020A34D010884B038B504AC84E8E6
:1012A0000F00DDE908549DF91C0000F03BFB0C2CFD
:1012B00012D910482146FFF77BFF0C2000F052FAAC
:1012C00095B90B3C012C13D8012000F045FABDE87C
:1012D000384004B000F07CBA052CF1D8054821460E
:1012E000FFF766FF0620E9E7012D01D10C2CEBD0BA
:1012F0000020EAE7B44C010884B008B50DF1080CF1
:101300008CE80F009DF80D30012B10D19DF827308F
:101310009BB1F521112000F070FC402000F078FC1A
:1013200000F0330141F04001402000F066FCBDE8D0
:101330000840032004B000F0DFBCF721112000F0CA
:101340005CFC402000F064FC00F03F01EAE700F0A4
:10135000FD0001280CBF80200020704784B070B5CC
:1013600004AC84E80F0009209DF9404000F050FCD7
:1013700006465A2000F04CFC05469DF81000FFF789
:10138000E6FF06F07F063043C0B2020600F0F0032D
:1013900027D5112CCBBF45F0070505F0F805EDB2B8
:1013A00045F0040505F00702072A12D1142CA8BF46
:1013B0001424052CB8BF0524611F1943C9B20920A4
:1013C00000F01BFC2946BDE870405A2004B000F034
:1013D00014BC112CA8BF1124022CB8BF0224A11EDA
:1013E000EBE70E2CA8BF0E2444EAE474013443EA70
:1013F0000401E3E784B0F0B58BB010AC84E80F00D3
:101400009DF94C30089314AD0FCD6C46159EBDF878
:101410005A700FC495E80F0084E80F0010AB0FCB93
:10142000FFF79CFF129800F047FC9DF85F306BB10E
:101430004B2000F0EDFB60F07F01C9B24B2000F0C3
:10144000DCFB9DF86010242000F0D7FB1D2000F08D
:10145000DFFB9DF859309DF8581041EAC301149BF9
:1014600041EA83119DF85C3041EA83019DF85E30CA
:1014700041EA4301C9B21D2000F0BFFB1E2000F06D
:10148000C7FB00F00F0141EA0611C9B21E2000F0AF
:10149000B4FB390A202000F0B0FB2120F9B200F0A3
:1014A000ACFB062E4FF0310010D100F0B1FB00F084
:1014B000F80141F00501312000F09FFB0C2137209D
:1014C0000BB0BDE8F04004B000F097BB00F0A0FB0B
:1014D00000F0F80141F00301312000F08EFB0A21F9
:1014E000EDE70821122000F088BB08B568B1332071
:1014F00000F08EFB00F0BE01332000F07EFB1921CE
:101500003B20BDE8084000F078BB332000F080FBB2
:1015100000F0BE0141F00101332000F06EFB1D21FF
:10152000EEE738B5044622200D4600F066FB0021A8
:101530000E2000F062FB00210D2000F05EFB012078
:1015400000F066FB30F0F80304D100F0F1F8012060
:1015500005F028FB29462046BDE8384000F0A2BB34
:101560000FB407B5064B04AA1B6852F8041BD868D1
:10157000019209F013F903B05DF804EB04B0704771
:10158000F002002010B50C4C2379022B02D0032B63
:1015900007D010BDFFF7D2FC084B1B68BDE8104018
:1015A0001847204600F0DCFB94F8280000F06CFBA4
:1015B00001232371024BF0E704120020F8110020F0
:1015C0000012002010B5044604F074FA2046074BC0
:1015D00040F8283B1022002106F068FE012384F821
:1015E0003830034B2360204610BD00BF205A01084D
:1015F000945A01082DE9F041394C267988B0884683
:1016000017461D4646B137483146FFF7A9FF4FF050
:10161000FF3008B0BDE8F081FFF72AFE4046FFF733
:1016200031FE0E98FFF72AFC3846FFF717FC2846D4
:10163000FFF71AFC2C48FFF793FF4FF4807006F079
:10164000B9FC2A4B186028B92948FFF789FF6FF0C9
:101650000100DEE7274BA360042384F820304FF419
:10166000FA6363620E2323730723636108234FF039
:101670000108638320460523638584F80580267767
:10168000E67784F81E8084F82160266184F819804A
:10169000667784F8228084F8288000F061FB254674
:1016A0006F4605F8100B0FCD0FC795E80F0087E8C0
:1016B0000F0094E80F00FFF7EFFDA5F1100CBCE858
:1016C0000F006F460FC795E80F0087E80F0094E8FA
:1016D0000F00FFF735FC84F80480304699E700BF1F
:1016E00004120020714E0108A84E0108B812002013
:1016F000D54E01082021F636014B1879704700BFFE
:101700000412002008B5064804F031FA054804F038
:101710002EFA00F022FB044B01221A7108BD00BF13
:10172000C01200207812002004120020FFF7EABF48
:1017300008B5064804F01BFA054804F018FA00F052
:1017400009FB044B01221A7108BD00BFC012002022
:101750007812002004120020014B1876704700BF59
:1017600004120020014B5861704700BF0412002092
:10177000014B1861704700BF04120020014B187321
:10178000704700BF04120020014B5876704700BF1D
:1017900004120020014B5883704700BF0412002040
:1017A000014B83F82E00704704120020014B986013
:1017B000704700BF04120020014B83F822007047DD
:1017C00004120020014B5885704700BF041200200E
:1017D00070B50A4E88B0012006F1100500F023FA1A
:1017E0000FCD6C460FC495E80F0084E80F0096E813
:1017F0000F00FFF7FFFD08B070BD00BF041200200E
:1018000070B50A4E88B0012006F1100500F00BFA01
:101810000FCD6C460FC495E80F0084E80F0096E8E2
:101820000F00FFF70DFC08B070BD00BF04120020D0
:10183000034B4FF480720021186806F037BD00BFDB
:10184000B812002010B5084C2379022B0BD10748A1
:1018500004F08DF9FFF769FC01232371044BBDE807
:1018600010401B68184710BD041200207812002099
:10187000F81100202DE9F041224C2179022931D1C3
:10188000FFF757FCFFF759FC012805460DD1FFF77C
:1018900061FC94F8223003B925711B4804F067F904
:1018A0001A4B1B68BDE8F0411847FFF757FC80460C
:1018B000FFF761FC164D07462868FFF76CFC94F8AB
:1018C000223006460BB9012323710F4804F04FF96B
:1018D000104B28681C683A4643463146A446BDE88A
:1018E000F0416047032908D10B4804F040F9FFF7A5
:1018F000F8FD01232371094BD3E70948BDE8F04106
:10190000FFF72EBE0412002078120020F4110020F0
:10191000B8120020F0110020C0120020FC1100209D
:101920001C4E010870B5094E8AB006F110050890EA
:101930000FCD6C460FC495E80F0084E80F0096E8C1
:101940000F00FFF70BFD0AB070BD00BF04120020AE
:101950002DE97043044699460D46904604F072FE08
:10196000636B23B994F838300BB104F015FC04F123
:101970002806AE420BD03046FEF7F0FF3EB1EB68D2
:101980001BB15B68294630469847EB686363424663
:101990004B46204604F0D3F8BDE8704304F068BE1F
:1019A000F0B5194E8DB006F110050746FFF740FF60
:1019B0000FCD6C460FC495E80F0084E80F0096E841
:1019C0000F00FFF7E9FA02233371D7B1102200218B
:1019D00008A806F06BFC0D4B089338460C4B0B9394
:1019E00011F0A6FB00220B4B11F01CFC11F0B2FF12
:1019F00002460B46084808A9FFF7AAFF08A8FEF709
:101A0000ADFF0DB0F0BD00BF041200208515000829
:101A10004C4C010800408F4078120020F0B5244C57
:101A200063798FB006460D461BB1012B08D0002705
:101A300012E02048FFF794FD4FF0FF300FB0F0BDEB
:101A400094F82100FFF751FD2846FFF7A9FE29462B
:101A50003046FFF766FD676A174E08970FCE6D4652
:101A60000FC596E80F0085E80F0094E80F00FFF718
:101A700043FC0323102200210AA8237106F016FC60
:101A80000E4B0A9338460E4B0D9311F051FB00227A
:101A90000C4B11F0C7FB11F05DFF02460B460A48E4
:101AA0000AA9FFF755FF0AA8FEF758FF0020C5E76F
:101AB00004120020384E0108141200208515000879
:101AC0004C4C010800408F40C012002070B50F4EF2
:101AD0000F4D104C3046FFF775FD30460E4E2A462E
:101AE000214601F027F83046FFF76CFD30460B4EDB
:101AF0002A46214601F01EF83046FFF763FD2A46CC
:101B000021463046BDE8704001F014B8C0120020F4
:101B1000C8010020A5090008781200203812002012
:101B200010B50446044B40F8B83BD4F8C4300BB1B0
:101B30009B689847204610BDB05B01080FB407B5FD
:101B4000064B07491B6805AAD868019208F026FED3
:101B500003B05DF804EB04B0704700BFF002002052
:101B6000424F0108F8B50D4C0D4F23681646E26848
:101B70001B040D46136040F08001094804F03AFA56
:101B8000013D2E44B54205D015F8011F384604F03A
:101B900031FAF7E7A36822681A60F8BDBC13002089
:101BA000F4130020F8B50E4C0E4F23681646E26879
:101BB0001B040D46136000F07F010A4804F01AFA76
:101BC000013D2E44B54206D00021384604F012FAF9
:101BD00005F8010FF6E7A36822681A60F8BD00BF98
:101BE000BC130020F413002010B50446FFF798FF43
:101BF000204601F00CF9204610BD07B502AB0122CA
:101C000003F8011D1946FFF7ADFF03B05DF804FBB3
:101C100007B501220DF10701FFF7C4FF9DF807008A
:101C200003B05DF804FB10B504460120FFF7F0FF98
:101C3000C0F3C010844226D0012C13D0FFF762FD00
:101C40000120FFF7E5FF00F07F010120FFF7D5FF3E
:101C500000214020FFF7D1FF30214120BDE8104096
:101C6000FFF7CBBFFFF74EFD2046FFF7D1FF60F037
:101C70007F01C9B22046FFF7C0FF00214020FFF7D7
:101C8000BCFF0021E9E710BD10B504460120FFF7B5
:101C9000CAFF2CB134213920BDE81040FFF7ADBF99
:101CA0001221F8E70A4601460020FFF75BBF0A460B
:101CB00001460020FFF776BF10B511F039FA0CA3EA
:101CC000D3E9002311F0D8FB11F084FD0446C0F3E2
:101CD00007410620FFF791FFC4F307210720FFF714
:101CE0008CFFE1B20820BDE81040FFF786BF00BFBF
:101CF0000000000080844E40144910B50A78044664
:101D000090B932B901230B70114BDA681B681B04C0
:101D100013600120FFF77CFF00F0F8012143012050
:101D2000BDE81040FFF769BF094B2AB11A680020CF
:101D30000870D96812040A60032C1A6803D0DB68A3
:101D400012041A60E5E79B68FBE700BFD01400208F
:101D5000A01300200120FFF7CFBF0020FFF7CCBF6A
:101D60002DE9FF475B4B5C4C00271F70054604F0D4
:101D700069FC0121204600F0B5FB04F079FC2368E2
:101D8000E2681B041360012004F00CFF04F05AFC0D
:101D90002046394600F0A6FB04F06AFC062004F059
:101DA00001FF2E784D4C042E1CD104F04BFC39461B
:101DB000204600F097FB04F05BFC012004F0F2FEEB
:101DC00063681A6823681A4214BF01263E4604F06D
:101DD00039FC2046012100F085FB04F049FC01207C
:101DE00004F0E0FE2368E2683D483E4C1B041360AB
:101DF0003D4B9A681B6813600821002204F0D8F854
:101E00003A4804F0C1FE0020FFF776FF1022ACBB79
:101E10002146684606F04AFA69463548354C03F0D3
:101E2000D6FF6846FEF79AFD10227CBB2146684625
:101E300006F03CFA69463048DFF8CC802F4C03F0BE
:101E4000C6FF6846FEF78AFD4FF0030900235F1CBA
:101E5000DBB2D8F80020B2FBF9F29A421ED903EBAC
:101E6000430304EB030AE05CFFF7DDFE9AF802107F
:101E70009AF80100FFF7C1FE3B46E8E700216846FB
:101E800006F014FA1E4B00940393C5E70021684640
:101E900006F00CFA1A4B00940393CBE76879194CBF
:101EA000FFF7C1FE95F82800FFF7EEFE4220FFF78E
:101EB000AFFE38B92046FFF741FE4FF07E5004F0E8
:101EC00063FEF3E7A868FFF7F7FE304604B0BDE80D
:101ED000F08700BFD0140020D8130020A0130020EA
:101EE000F413002075180008BC130020CDCCCC3DA5
:101EF0000013002045180008501300200F4F010860
:101F00004C4C0108424F0108D001002073B5224D0E
:101F1000224C234E0A21284603F0FEFE2846214D7E
:101F20002246314600F006FE1321284603F0F4FE57
:101F30002246314628461C4D00F0FCFD4FF0FF3391
:101F40000093062205230721284604F085F822463F
:101F50001649284600F0EEFD154B1C242246184673
:101F6000002106F0A3F9162103F08CFE114B224646
:101F70001846002106F09AF9002103F070FE0E4B7E
:101F800022460021184606F091F9212102B0BDE851
:101F9000704003F064BE00BF00130020C8010020A1
:101FA000715D000850130020F4130020211B00086D
:101FB000BC130020D8130020A01300200FB407B5D5
:101FC000064B04AA1B6852F8041BD868019208F05B
:101FD000E5FB03B05DF804EB04B07047F0020020AD
:101FE00013B5084B0024CDE9003401220823072152
:101FF0002046FEF763FFFEF74BFF034B1C7002B059
:1020000010BD00BF2021F636D114002010B5FFF717
:102010008DFBFFF7E5FF034B00201B68BDE8104078
:10202000184700BF1415002010B5FFF77FFBFFF71E
:10203000D7FF034B02201B68BDE81040184700BFC4
:102040001415002020292DE9F04180460C46174642
:102050001E4603D91748FFF7B1FF2024164D22462C
:102060004146284606F00CF8144B1F80144B1E7096
:102070002B782E46B3B9134BAD781B78EB1A5D4223
:102080005D41114B1B787BB9FFF750FBFFF7A8FFB1
:1020900075B10E4B70781B680D49221FD2B2BDE896
:1020A000F04118470025ECE70A48FFF787FFEFE704
:1020B000BDE8F0814F500108D21400201E15002009
:1020C0001C15002020150020D11400201815002018
:1020D000D61400209450010808B5074B1B782BB983
:1020E000FFF724FBBDE80840FFF77ABF0348BDE8CF
:1020F0000840FFF763BF00BFD114002094500108CF
:102100000C4B13B518700C4B19600C4B0C491A6032
:102110000C4B009304460C4A0C48FFF76BFA0C4B2F
:1021200000221A705C70FFF701FB02B0BDE810409E
:10213000FFF756BF201500201415002018150020A9
:1021400029200008D9200008452000080D2000089B
:10215000F2140020F7B5174F3C7834B116482146E9
:10216000FFF72CFF012003B0F0BD1C2905D913484F
:102170002022FFF723FF0320F5E7114D0E1DAA7063
:10218000F6B20A460146281D2C70EE7005F078FF65
:102190000C4A0823CDE900322146012307220E20F4
:1021A000FFF73AF831462846FFF714F801233B7051
:1021B0002046D8E7D1140020644F0108A54F01083C
:1021C000F21400202021F636014BB3F900007047CD
:1021D0001E150020014B93F9000070471C150020CC
:1021E00010B5074B1C78012C05D106482146FFF796
:1021F000E5FE204610BD044B18700020FAE700BF32
:10220000D1140020EF4F01082015002043692DE96B
:10221000F0410D46D907044628D58168334F8268BE
:10222000334E836833483940B94202EA060204BF9C
:102230000127A760B24203EA000304BF4FF480768F
:10224000A660834204BF4FF48030A06027488142DB
:1022500005D027498A4202D0264A934206D1264B0E
:10226000264A1B6852F8250001219847E2686369F5
:10227000920708D09F0706D51F4B204A1B6852F8CB
:10228000250000219847A169626963698E070AD514
:10229000900508D5190406D5174B184A1B6852F843
:1022A000250005219847A7696669626917F0040748
:1022B00006F4806609D046B1120406D50E4B0F4ACB
:1022C0001B6852F825000721984763695FB156B132
:1022D0001B0408D5084B094A1B6852F82500022147
:1022E000BDE8F0411847BDE8F08100BF03000004DD
:1022F00000030008000003102C1500202415002006
:1023000000210148FFF782BF00640040FFF7F8BFDB
:10231000FFF7F6BF01210148FFF778BF00680040D2
:10232000FFF7F8BFFFF7F6BF30B5036891FAA1F4E5
:10233000B4FA84F491FAA1F10325B1FA81F16400B1
:1023400005FA04F4490023EA040302FA01F11943EF
:10235000016030BD00B5002389B007286FD8DFE8E1
:1023600000F00413202D3A4754610093364B374850
:102370001A6B42F001021A631B6B03F00103009316
:10238000009B09B05DF804FB01932F4B30481A6B9A
:1023900042F002021A631B6B03F002030193019BDC
:1023A000EFE70293284B2B481A6B42F004021A63A2
:1023B0001B6B03F004030293029BE2E70393224B9F
:1023C00025481A6B42F008021A631B6B03F00803DE
:1023D0000393039BD5E704931B4B20481A6B42F0F1
:1023E00010021A631B6B03F010030493049BC8E7ED
:1023F0000593154B1A481A6B42F020021A631B6BA7
:1024000003F020030593059BBBE706930E4B15488D
:102410001A6B42F040021A631B6B03F040030693F1
:10242000069BAEE70793084B0F481A6B42F08002F9
:102430001A631B6B03F080030793079BA1E70B480C
:1024400004F068FC00209CE70038024000000240D5
:102450000004024000080240000C0240001002404C
:102460000014024000180240001C0240785301088A
:10247000431C10B5044604D176220649064803F0F1
:10248000CBFE2046002100F00DFE04F00F040120D9
:10249000A04010BD99530108F353010870B50446DC
:1024A0004B1C0E46218216D0C1F30310FFF752FFDA
:1024B00005463046FFF7DCFF238A074A656103F0D3
:1024C0000F03206052F82330A36105F11003183583
:1024D0006360A560E56070BDB0560108B0F91000FA
:1024E00000F078BE0A4619B981694069FFF71CBF40
:1024F0000122F9E74C23F0B54343224E224F1A1D27
:10250000324400244FF0010E1E448C4205D1014696
:10251000BDE8F0401D4804F0FDBB33680EFA04F539
:102520001D422BD0136B7D690EFA03F32B4225D08D
:10253000D2F818C07B61156805B3FA6833EA020265
:1025400003D1BA6833EA020214D10F4A916833EA20
:10255000010103D1D26833EA02020DD1DCF8102068
:10256000134214BF01210221094B28461B68BDE814
:10257000F04018470221F7E70121F5E70134043262
:10258000C3E700BF30150020003C01402D54010876
:102590004417002006210846FFF7ACBF0521084676
:1025A000FFF7A8BF01210420FFF7A4BF01210320EA
:1025B000FFF7A0BF01210220FFF79CBF01210846C1
:1025C000FFF798BF01210020FFF794BF012910B544
:1025D00018D11B4C838952B1A26803F00F039940B4
:1025E0001143A160836843F00103836010BDA268BA
:1025F00003F00F03994022EA0101A160836823F0F0
:102600000103F2E70229F1D10D4983895AB1CC685F
:1026100003F00F03012202FA03F32343CB60836824
:1026200043F00203E1E7CA6803F00F03012404FA50
:1026300003F322EA0303CB60836823F00203D4E7A9
:10264000003C0140B0F90C3099B270B501F00F06B2
:1026500006F00C0404F1804404F59C3401F00301FD
:10266000A56889000F228A40C3F3031325EA0205F7
:102670008B402B43A3600F4B01221968B2401143DA
:1026800019608468E50742BF996811439960A10702
:1026900042BFD9680A43DA6090F90030002B08DBAA
:1026A0005909012203F01F0302FA03F3024A42F818
:1026B000213070BD003C014000E100E02DE9F04F09
:1026C00092464A1C85B080460C4666D00022039292
:1026D000334A344F516C41F480415164526C02F4DE
:1026E00080420392039A04F00F090C2202FB097244
:1026F000C4F303105568062D47D8DFE805F0043A07
:102700003C3E40424400284E0193FFF723FE0C213B
:1027100001FB09F17A1857F801E0244FA8F80C40A2
:102720004C21694301247B5892F90820C8F80450D1
:1027300004FA0EF44FF0000B1C4388F80020C8F890
:1027400008B07C50132101FB05E507EB8501019BD7
:102750004B60174BC861C3F800A0164BC1F834900A
:102760009B681032404643F82260FFF76BFF5846E3
:1027700010E0114EC8E7114EC6E7114EC4E7114EE6
:10278000C2E7114EC0E7114EBEE7114804F0C2FA8D
:102790004FF0FF3005B0BDE8F08F0846FAE700BF04
:1027A0000038024058540108C525000830150020A3
:1027B0004417002000ED00E0BD250008B525000805
:1027C000AD250008A52500089D25000895250008D1
:1027D000065401088389184A03F00F03012110B53C
:1027E00001FA03F39468DB431C409460D4681C40F6
:1027F000D46014682340136090F90030002B0CDB88
:102800005A0903F01F0301FA03F320320B4941F880
:102810002230BFF34F8FBFF36F8F90F90030002B42
:1028200009DB5A09012103F01F0301FA03F36032A7
:10283000024941F8223010BD003C014000E100E0B7
:10284000838903F00F020C235343104A70B5446888
:10285000D658FFF7BFFF4C210D4A6143012000FA13
:1028600006F55058132303FB046320EA050050507B
:1028700002EB830000214160981D0C3302EB8000C5
:1028800002EB83034160596070BD00BF58540108DA
:102890003015002008B503F07DF8002008BD0000C9
:1028A00008B50A4B1B684BB103F0F0F904F0EFF8E0
:1028B0004FF47A72002310F0FDFF08BD03F0BEF85C
:1028C0004FF47A73B0FBF3F008BD00BF4817002047
:1028D00010B588B003F0B6FE052101A803F0D2F9C7
:1028E0000424039B019A1A60962004F05BF9019B73
:1028F000049A1B041360962004F054F9013CF0D1B3
:102900000424039B019A1A604FF4C87004F04AF93A
:10291000019B049A1B0413604FF4C87004F042F941
:10292000013CEED1DCE7000070B50D46A0B00446D6
:1029300003F088FE2B4622468021684609F07CFB86
:10294000051E03DC03F094FE20B070BD094B1B682C
:1029500023B903220221084800F090FE064E00240D
:102960001DF804103046013401F06AF8A542F7D191
:10297000E8E700BF90170020341900200FB407B516
:1029800004A951F8040B0191FFF7CEFF03B05DF8E5
:1029900004EB04B07047000008B502F0A9FF01F095
:1029A000ADF802F095FF02F0A3FF024B01221A607E
:1029B00008BD00BF481700200020704703680122AF
:1029C0001B6900211847036800221B69114618473C
:1029D00003681B69184703689B69184703689B6A6B
:1029E000184700290CBF6FF0180000207047012025
:1029F00070471120704770476FF01C0070476FF0F0
:102A00001500704701207047002070477047000094
:102A1000F8B5074E15460C468F18BC4205D014F881
:102A2000011B304601F00CF8F7E72846F8BD00BF5F
:102A30003419002038B58DB215F0010405D00848CE
:102A400000F098FD041C18BF0124EB0605D50448CE
:102A500000F0A6FD08B144F01004204638BD00BFC8
:102A60003419002010B5044605F0ACFA204610BD1C
:102A700010B50C462AB1044800F0D0FF20700120A8
:102A800010BD104610BD00BF3419002038B51D46DA
:102A9000074B0360074B1B68044633B9064800F038
:102AA000EDFD2946044800F0B1FD204638BD00BFC9
:102AB0009455010890170020341900200020704719
:102AC0000020704708B5012000F036F80C4A136862
:102AD00010B51844EFF30881884205D3094B0C2246
:102AE0001A604FF0FF3010BD07490C6824B1074948
:102AF000096821448842F1D21060184610BD00BF19
:102B0000D4020020FC1800205C1700206017002071
:102B1000074C08B523680546986804F045FC23680F
:102B2000D86804F041FC0DB1FFF7D2FEFEE700BF0C
:102B3000F00200200120704708B5FFF7E9FF0120EF
:102B40007047002105F0EEBC04F068BC7047704788
:102B500008B5FFF7FBFF08BD08B5FFF7F8FF08BD94
:102B600010B5037803F00303012B04460CD02BB1FE
:102B700040F2A9520549064803F04EFB237843F082
:102B800002032370012010BD002010BDDC55010898
:102B90003356010810B5037803F00303022B0446F3
:102BA00005D040F2B1520549054803F035FB2378C2
:102BB00023F0030343F00103237010BDDC5501082B
:102BC000595601083F2870B504462FDC184D55F8BA
:102BD00020305A1C13D1022811DCFFF771FF034685
:102BE00058B92046FFF76AFF034630B9114E3378D3
:102BF000BFF35B8FDB0704D50F4B45F82430184635
:102C000070BD3046FFF7ACFF0028F5D04FF41653E7
:102C1000032202210848FFF739FF3046FFF7BAFFC9
:102C2000064A07490448FFF785FFE5E70023E6E782
:102C3000D40100204C17002058170020C8010020A4
:102C40000D2A000838B50546FFF7BCFF0B4B0024E2
:102C500043F8254030B904F06DFA092303604FF0C2
:102C6000FF3038BD03685B699847051E04DA04F03D
:102C700061FA6D420560F2E7204638BDD4010020BC
:102C8000FFF7E0BF38B50C461546FFF79BFF38B994
:102C900004F050FA092303604FF0FF34204638BD9A
:102CA00003682146DB682A469847041EF6DA04F0DA
:102CB00041FA64420460EFE708B5131E06DA04F037
:102CC00039FA162303604FF0FF3008BD04D0FFF738
:102CD000D9FF40EAE07008BD184608BD38B50C467B
:102CE0001546FFF76FFF38B904F024FA0923036093
:102CF0004FF0FF34204638BD036821469B682A46C2
:102D00009847041EF6DA04F015FA64420460EFE70F
:102D1000002A08B503DBBDE80840FFF7DFBF04F079
:102D200009FA162303604FF0FF3008BD10B5FFF716
:102D300049FF044628B904F0FDF909230360204641
:102D400010BD0368DB699847041EF8DA04F0F2F955
:102D5000644204600024F2E71FB504220C464023BD
:102D60000DEB020101900DF109008DF8083005F01E
:102D700087F9214602A804F0DFFC044630B101982F
:102D8000FFF7D4FF10B12046FFF7DBFE204604B06A
:102D900010BDFFF7CBBF38B50C461546FFF712FF45
:102DA00038B904F0C7F9092303604FF0FF34204617
:102DB00038BD036821461B692A469847041EF6DA87
:102DC00004F0B8F964420460EFE7FFF7E4BF38B5F8
:102DD0000D46FFF7F7FE044630B904F0ABF90923BE
:102DE00003604FF0FF3038BD0368DB699847002867
:102DF00014BF4FF400534FF400436B602368204628
:102E00009B6A98472861002038BDFFF7E0BF05F0B6
:102E1000D9B80000034610B553F8042B044602B994
:102E2000036022689A4204D05E220349034803F0FB
:102E3000F3F9206810BD00BF185501087755010847
:102E400010B504460948FFF7E5FF0023084A194674
:102E500052F82300A04208BF42F823100133402B50
:102E6000F6D10248FFF7D6FF10BD00BF5017002073
:102E7000D401002010B50F48FFF7CCFF0E4B032400
:102E800053F824206AB10134402CF9D104F052F9EE
:102E9000182303600748FFF7BDFF4FF0FF342046BB
:102EA00010BD4FF0FF32034843F82420FFF7B2FF74
:102EB000F5E700BF50170020D401002010B50446EC
:102EC000FFF7D8FF0028A4BF014B43F8204010BDF6
:102ED000D401002070B506460C46FFF7EFFF05460B
:102EE00090B12146FFF738FF044630B9074B53F83D
:102EF0002520964203D143F82500204670BD04F0FA
:102F000019F909230360F8E70446F6E7D401002025
:102F10000EB42DE9F04185B00546FFF7ABFF041E66
:102F200013DB0023294602A8019303F0C7FD02A882
:102F300003F016FE1B4D064668B904F0FBF8132398
:102F4000036045F824604FF0FF34204605B0BDE82B
:102F5000F04103B0704702A803F0F0FD074602A855
:102F600037B103F0F4FD0190019B45F82430ECE704
:102F700003F0DBFD06460028DFD0036802A8D3F883
:102F8000088003F0C7FD0B9B024601A93046C047ED
:102F900006460028E8D004F0CDF87642066045F8F1
:102FA0002470D0E7D401002073B50E4618490546B9
:102FB00005F0EAFB044620B9FFF704FE204602B004
:102FC00070BD1449284605F0DFFB20B90120FFF74A
:102FD000F9FD0124F2E71049284605F0D5FB20B998
:102FE0000220FFF7EFFD0224E8E72B78402B07D102
:102FF0000422691C0DEB020005F042F8019CDDE79C
:1030000026F400412846FFF783FF0446D6E700BFB9
:10301000A0560108A7560108985601087047704746
:10302000074B08499A68084810B5043A52F8044F0B
:1030300041F8044F8142F9D14FF000529A6010BD1F
:1030400000ED00E0FCFFFF1FC001002008B5FFF706
:10305000E7FFFFF7A1FCFFF7E2FF08BD08B5FFF7A8
:10306000DDFFBDE80840FDF727B930B5C36891FA28
:10307000A1F4B4FA84F491FAA1F10325B1FA81F133
:10308000640005FA04F4490023EA040302FA01F19A
:103090001943C16030BD012A02D0022A18BF0022A4
:1030A000FFF7E3BF2DE9F0410E46411C044604D171
:1030B0003E224449444803F0AFF804F00F08434B64
:1030C000C4F3031053F82850FFF744F906F007073C
:1030D0000446836895FAA5F1B1FA81F195FAA5F253
:1030E0000320490000FA01F1B2FA82F223EA010357
:1030F0005200022101FA02F21343A36087425AD818
:10310000DFE807F05E1D021DB8F1070FC6F30320CC
:103110003BD9626A2B0A93FAA3F1B1FA81F193FACF
:10312000A3F34FF00F0EB3FA83F389000EFA01F107
:103130009B0022EA010200FA03F3134363623B4659
:10314000226895FAA5F0B0FA80F095FAA5F14FF053
:10315000030EB1FA81F140000EFA00F0490022EAB4
:1031600000028B40013F1343012F236005D86368A1
:1031700032074CBF2B43AB436360C6F301122946B1
:103180002046BDE8F041FFF786BF226A95FAA5F315
:10319000B3FA83F395FAA5F14FF00F0EB1FA81F16E
:1031A0009B000EFA03F3890022EA030200FA01F3FE
:1031B00013432362C3E767220249054803F02CF852
:1031C0000023BDE7F0560108F3530108B05601088B
:1031D000E75D0108431C70B506460D4604D1882200
:1031E0001B491C4803F018F806F00F021A4BC6F3EF
:1031F000031053F82240FFF7ADF804FB04F2016816
:1032000002EB42030B40B3FBF2F3013B012B05D869
:10321000EB1E022B436809D823434360032D08D1DA
:1032200001222146BDE87040FFF735BF23EA0403C1
:103230004360012DF4D0052D01D0022D01D10222D1
:10324000EFE721460022BDE87040FFF70EBF00BF48
:10325000F0560108F3530108B056010870B5A6B046
:103260003422002102A805F021F85C2200210FA8D9
:1032700005F01CF82A4B1D68002D4FD1294C0195F3
:1032800001261E60236C43F080532364236C03F0FB
:1032900080530193019B00F05DFC042302A802937C
:1032A0000895049600F0C0FF10B11F4803F032FDEE
:1032B000A36823F4F813A360A36823F4F813A360AE
:1032C000236F43F48073236720230F930FA84FF4D9
:1032D00080731F9300F058FD10B1144803F01AFDDD
:1032E000134B144801221A60134B0360032200237E
:1032F000826041F6FF7243774360C26003614361BD
:10330000836101F05EF910B10C4803F003FD094838
:1033100001F089FA10B10A4803F0FCFC26B070BD38
:103320006C17002000380240485701086857010810
:103330003C0E4742701700200028004091570108BA
:10334000AB570108F0B51F4B1F491C681F4A5D6849
:103350008BB00C4015401E460F461868084084424A
:103360002BD158681040854227D105F03F0001F06D
:1033700051FA0490C5F3042001F04CFA013805908D
:10338000280C01F047FA44300690C4F3054001F0E0
:1033900041FA0390C4F3062001F03CFA029004F0D5
:1033A0007F0001F037FA01220190694601A802F07E
:1033B00051FF00B100980BB0F0BD346875683C4017
:1033C0001540CAE7002800407F7F7F003FFFFF00D5
:1033D000024BD868C0F30010704700BF00280040BF
:1033E000214B224A2DE9F0411D691C689E6AC5F3F4
:1033F0000E05144018461746196811408C422ED10C
:10340000996A8E422BD1C4F3054001F003FA0746B6
:10341000C4F3062001F0FEF9804604F07F0001F0BD
:10342000F9F9134A13493C2313FB08004FF4616375
:1034300003FB07001368146898420B683CBF03F550
:10344000A83303F5C0731B1B03440B6010600868AE
:10345000013DC00305EB9000801BBDE8F0810468CE
:10346000866A3C40C8E700BF002800407F7F7F009D
:10347000681700206417002030B591B00021142295
:10348000044602A8019104F011FF03F0DBF82A4B77
:103490002A4A1A6007A90122204602F02BFF0028C1
:1034A00048D00D9B03B907238DF804300B9B0133E3
:1034B0008DF805300A9B8DF806300C9B443B8DF847
:1034C0000730099B8DF80830089B8DF809300024DF
:1034D000079B8DF80A308DF80B4005940694FFF792
:1034E0007FFF9DF809109DF80A2013483C2313FB29
:1034F00001229DF808304FF4616101FB0323104A5B
:1035000013600E4B224601A99D6A01F0B3F810B179
:103510000C4803F0FFFB002202A9074801F00AF95A
:1035200010B1094803F0F6FB044A936A9D42FCD1AE
:1035300003F09EF811B030BD701700200028004045
:1035400068170020C4570108DB5701080FB407B5FE
:10355000064B07491B6805AAD868019207F01EF9B7
:1035600003B05DF804EB04B0704700BFF002002028
:10357000F25701084368094A9B0182B0D3581A6880
:10358000120706D5002201921A6801925A68019228
:10359000019A1868C0F3401002B0704780190020EB
:1035A0004368034A9B01D3581868C0F3C0107047A2
:1035B0008019002042681449920110B404685450E4
:1035C000531882685A60C2689A600269DA60426978
:1035D0001A61026A9A610022DA84DA619A84DA85D1
:1035E0009A85B0F91A20013206D108225A6118468C
:1035F0005DF8044B01F0B1BEB0F9182001320CBFE8
:1036000004220C22F2E700BF8019002010B581606F
:103610000C46FFF7CFFF28B121460348BDE8104014
:10362000FFF794BF10BD00BFF2570108124B98423C
:1036300017D0A3F54C43984215D003F58063984208
:1036400013D003F58063984211D003F5806398424C
:103650000FD003F5444398420CBF05204FF0FF30D4
:1036600070470020704701207047022070470320F8
:1036700070470420704700BF00100140F0B50E46AF
:1036800087B004465B493046154602F037FC5A497C
:103690000746284602F032FC0146384602F008FC94
:1036A0002060013004D13D225449554802F0B4FD58
:1036B000022E0CD0032D0AD04E49022002F01EFC2F
:1036C000874202D14F4803F025FB002700E0012785
:1036D0004D4B206898424FF000031AD100934B4B9A
:1036E0005A6C42F010025A645B6C03F010030093B2
:1036F000009B474B984229D100230593434B5A6CBA
:1037000042F020025A645B6C03F020030593059B92
:103710001CE0404A90420BD101933C4B1A6C42F49E
:1037200000321A641B6C03F400330193019BE0E741
:10373000394A904240D10293344B1A6C42F48022B1
:103740001A641B6C03F480230293029BFFF76EFF45
:103750000028606004DAA4222849304802F05CFDA9
:103760002449304602F080FB2349284602F07CFBC6
:10377000721C03D001213046FFF72CFD6B1C03D0D7
:1037800001212846FFF726FD4FF41653A3600023BE
:10379000E360236163612362268365832046FFF72C
:1037A00009FF3FB11E4B1F4801221A6021464C22DF
:1037B00004F066FC07B0F0BD1B4A90420BD10393A6
:1037C000124B1A6C42F400221A641B6C03F400239F
:1037D0000393039BBAE7154A90428AD104930B4B9B
:1037E0001A6C42F480121A641B6C03F48013049365
:1037F000049BABE700530108885201081C580108DC
:10380000785801089458010800100140003802401F
:10381000001401400044004000480040C95801081D
:103820009017002034190020004C00400050004048
:10383000002808DB4209012300F01F0003FA00F012
:10384000014B43F82200704700E100E000280DDB47
:103850004309012200F01F0002FA00F02033044A5D
:1038600042F82300BFF34F8FBFF36F8F704700BF45
:1038700000E100E0F7B5FFF7D9FE071E26DB144E86
:1038800056F8270010B3134CBD0163591A6812068D
:1038900006D5DB68190603D50F4B01211B68984735
:1038A00063591A68920608D5DB68980605D50A4B55
:1038B00056F827001B680021984763591A681107BA
:1038C00004D55A69D20744BF5B68019303B0F0BDC9
:1038D0009817002080190020941700200148FFF756
:1038E000C9BF00BF001401400148FFF7C3BF00BFBC
:1038F000005000400148FFF7BDBF00BF004C004032
:103900000148FFF7B7BF00BF004800400148FFF77C
:10391000B1BF00BF004400400148FFF7ABBF00BF8C
:1039200000100140034B19604168034B43F821200C
:10393000704700BF941700209817002030B490E81B
:1039400018002C48834233D00AD8A0F50060834287
:1039500028D000F58060834227D0002318460FE06E
:10396000254883420AD000F58060834223D0A0F529
:1039700044408342F1D1214B352001E0204B2520EA
:10398000204DA401FAB1C9B92959CA6842F02002F0
:10399000CA601D4A00F11001926830BC42F8213023
:1039A000FFF746BF194B2620EAE7194B2720E7E728
:1039B000184B3420E4E7184B4720E1E72959CA683F
:1039C00042F08002E4E72B59DA6849B922F020027C
:1039D000DA60DB6813F0800F09D130BCFFF736BF27
:1039E00022F08002DA60DB6813F0200FF4E730BCCD
:1039F000704700BF004C004000100140E93800084B
:103A0000193900088019002000ED00E00D39000888
:103A100001390008F5380008DD38000838B5446879
:103A200005462846FFF7A6FD0028FAD0A401034B5F
:103A30001B595868C0F3080038BD00BF801900202A
:103A400070B5456806460C463046FFF7A9FD0028CC
:103A5000FAD0AD01024B5B59C4F308045C6070BD41
:103A60008019002008B50E4AC36D934214D008D8BF
:103A7000A2F5806293420FD00A4803F04BF9002070
:103A800008BD094A934203D002F580629342F3D104
:103A9000BDE8084000F04AB9BDE8084000F036B97A
:103AA000003C0040DB58010800300140DFF830D016
:103AB000002103E00B4B5B58435004310A480B4B89
:103AC00042189A42F6D30A4A02E0002342F8043B25
:103AD000084B9A42F9D301F01FFEFCF797FB7047A1
:103AE0000000022078670108C8010020C80C0020EF
:103AF000C80C0020481B0020FEE7704708B50B4BA0
:103B00001A6842F400721A601A6842F480621A60FD
:103B10001A6842F480721A60032000F009F80F203E
:103B2000FEF7B8FEFFF7E9FF002008BD003C0240A9
:103B3000074AD36823F4E0631B041B0C43F0BF6304
:103B4000000243F4003300F4E0600343D3607047A5
:103B500000ED00E0014B01221A60704720000E4288
:103B600037B500230193184B184C1A6C42F0805261
:103B70001A641B6C03F080530193019B144B0122C8
:103B80001A60FEF78DFE05466368DA030BD5114B0C
:103B90000E4C01221A60FEF783FE054663689B0304
:103BA0000AD5002006E0FEF77BFE401BB0F57A7FC9
:103BB000EAD9032003B030BDFEF772FE401BB0F51A
:103BC0007A7FEBD9F5E700BF003802400070004073
:103BD00040000E4244000E422DE9F0410D460446DD
:103BE00010B90120BDE8F081444B1A6802F00F02C1
:103BF0008A4228D321688F072DD4C80740D43F4B71
:103C00001A6802F00F02954266D3226851076CD4FD
:103C1000130707D53A4A2169936823F4604343EABE
:103C2000C103936000F0B8FA354B364A9B68C3F382
:103C30000313D35CD840344B18600F20FEF72AFEE4
:103C40000020BDE8F081CAB21A701B6803F00F03B0
:103C50009942C6D1CEE72A4B11F0040F1EBF9A68D5
:103C600042F4E0529A600E0742BF9A6842F4604202
:103C70009A609A68A06822F0F00202439A60BCE75A
:103C800062681F4B012A1DD11B6813F4003FA8D0A6
:103C90001B4EB36823F003031343B360FEF700FE2B
:103CA00041F288380746B368626803F00C03B3EB4F
:103CB000820FA4D0FEF7F4FDC01B4045F3D90320CA
:103CC000BDE8F081911E01291B6802D813F0007F26
:103CD000DDE713F0020FDAE7EAB21A701B6803F0AF
:103CE0000F039D427FF47DAF8FE70549E0688B6845
:103CF00023F4E05303438B608AE700BF003C02409B
:103D000000380240E1590108D8020020044B054A5E
:103D10009B68C3F38223D35C034A1068D840704782
:103D200000380240F1590108D8020020044B054A2E
:103D30009B68C3F34233D35C034A1068D840704792
:103D400000380240F1590108D80200200F23036017
:103D50000B4B9A6802F0030242609A6802F0F0028C
:103D600082609A6802F4E052C2609B68DB0803F448
:103D7000E0530361034B1B6803F00F030B607047B4
:103D800000380240003C024003682DE9F74313F07D
:103D9000010604460BD0AA49866BD1F88C2022F08C
:103DA000C0623243B6FA86F6C1F88C2076099D07C8
:103DB0000BD5A348E16BD0F88C2022F0C0520A4307
:103DC0000029C0F88C2008BF012613F0040512D08A
:103DD0009B49256BD1F88C20B5F5801F22F4401249
:103DE00042EA050218BFB5FA85F5C1F88C2012BF6A
:103DF0006D090025012618070FD59148616BD0F891
:103E00008C2022F440020A43B1F5800FC0F88C20C8
:103E100000F00981002908BF0125990633D5002348
:103E20000193874B874F1A6C42F080521A641B6CC7
:103E300003F080530193019B3B6843F480733B6024
:103E4000FEF72EFD80463B68DA0540F1EE807C4FA0
:103E50003B6F13F4407340F0FB80236C03F440721B
:103E6000B2F5407F764A40F01681916823F07040A9
:103E700021F4F81120F4407001439160116FC3F3F5
:103E80000B030B4313672368D90642BF6E4B94F8AC
:103E900058201A6023681A0608D56949E06CD1F8E1
:103EA000942022F440020243C1F894205F0608D512
:103EB0006349A06CD1F8942022F080620243C1F8DB
:103EC0009420D8050CD55E48616DD0F8942022F07E
:103ED00000620A43B1F1006FC0F8942008BF0125C9
:103EE000990508D55649606CD1F8942022F080528B
:103EF0000243C1F894205A0500F1D180012E40F010
:103F0000DC80524E4E4F00233360FEF7C9FC8046E2
:103F10003B681B0100F125812268D00701D5A36B06
:103F20001BB1910715D5E36B9BB94549D1F8843096
:103F3000D1F8840003F4403300F0706003436068FC
:103F40000343A06843EA8013606943EA0073C1F841
:103F50008430530703D5236BB3F5801F05D01707B3
:103F600020D5636BB3F5800F1CD13549D1F884306F
:103F7000D1F8840003F4403300F0E040034360686C
:103F80000343A06843EA8013206943EA0063C1F851
:103F90008430D1F88C00A36A20F01F00013B03435A
:103FA000C1F88C3050051BD5236DB3F1005F17D1DC
:103FB00023486768D0F88410D0F8843003F0E043D9
:103FC0003B43A768C1F30141013143EA871343EA48
:103FD0004163E1684908013943EA0143C0F884308C
:103FE000110511D52369A2681B0643EA8213626892
:103FF0001343626943EA0273E2685208013A43EAF2
:1040000002430F4AC2F8843001233360FEF748FCB4
:104010000B4E074633681A0153D4FEF741FCC01B10
:104020000228F7D908E00126F7E6FEF739FCA0EBF5
:10403000080002287FF607AF032003B0BDE8F08335
:104040000038024000700040E011474268004742DB
:10405000226C02F4407293423FF4FFAE3B6F4B4A36
:104060000121116023F44073002111603B673B6F15
:10407000DB077FF5F2AEFEF713FC41F2883980468C
:104080003B6F98073FF5E9AEFEF70AFCA0EB08008E
:104090004845F5D9D0E7916821F4F811EDE63C48A0
:1040A000216DD0F8942022F000520A43B1F1005F54
:1040B000C0F894207FF422AF23E7B3F5006F3FF4FC
:1040C00020AF012D4BD1334D314E00232B60FEF735
:1040D000E7FB074633689B004BD421684E0701D5A8
:1040E000236B1BB108071AD5636BC3B9284AA069B3
:1040F000D2F8883003F440330343E06943EA801385
:10410000606A43EA0063C2F88830D2F88C30E06A13
:1041100023F4F853013843EA0023C2F88C30CA056F
:1041200014D5636DB3F1006F10D11949A269D1F8AC
:10413000883003F070631343E26943EA8213226A12
:104140005208013A43EA0243C1F8883001232B6048
:10415000FEF7A6FB0E4C054623689B000FD50020FA
:104160006BE7FEF79DFBA0EB080002287FF6D0AEC0
:1041700062E7FEF795FBC01B0228ABD95CE7FEF7B0
:104180008FFB401B0228E7D956E700BF400E47428D
:104190000038024070004742204908B58B6803F0A0
:1041A0000C03082B07D00C2B20D01D4A1D48042BD4
:1041B00018BF104608BD4A684B68496813F480036D
:1041C00014BF18481648C1F3881118BF002302F025
:1041D0003F02A1FB00010FF06DFB104B5B68C3F3C6
:1041E000014301335B00B0FBF3F008BD4A684B6844
:1041F000496813F4800314BF0A480948C1F38811C1
:1042000018BF002302F03F02A1FB00010FF052FB98
:10421000024B5B68C3F30273E5E700BF003802405E
:104220000024F40000127A0003682DE9F341DF074F
:10423000044610D423689E0767D423681A0700F148
:10424000B28023685B0700F1D080A269002A40F0A9
:10425000398100201EE0974B9A6802F00C02042A74
:1042600010D09A6802F00C02082A02D15B685D0245
:1042700008D4904B9A6802F00C020C2A0DD15A68AF
:1042800050020AD58B4B1B689903D3D56368002B6A
:10429000D0D1012002B0BDE8F0816268B2F5803F64
:1042A00011D11A6842F480321A60FEF7F9FA814D92
:1042B00006462B689A03BDD4FEF7F2FA801B6428E9
:1042C000F7D90320E6E77B4DB2F5A02F2B6807D185
:1042D00043F480232B602B6843F480332B60E4E7A6
:1042E00023F480332B602B6823F480232B60002A77
:1042F000DBD1FEF7D5FA06462B689B039AD5FEF76D
:10430000CFFA801B6428F7D9DBE76A4B9A6812F072
:104310000C0F10D09A6802F00C02082A02D15B68D8
:104320005F0208D5634A936803F00C030C2B11D18C
:1043300053685E020ED45F4B1A68950702D5E26897
:10434000012AA6D11A68216922F0F80242EAC102C4
:104350001A6072E7E268584BB2B101221A60FEF7A8
:104360009FFA544D06462B68980707D52B6822699B
:1043700023F0F80343EAC2032B605EE7FEF790FAEE
:10438000801B0228EFD99CE71A60FEF789FA494D95
:1043900006462B6899077FF550AFFEF781FA801B20
:1043A0000228F6D98DE76269444B7AB101221A607E
:1043B000FEF776FA3F4D06466B6F9F073FF541AF1C
:1043C000FEF76EFA801B0228F6D97AE71A60FEF72C
:1043D00067FA384D06466B6F98077FF532AFFEF7E8
:1043E0005FFA801B0228F6D96BE7324B1A6C12F089
:1043F000805228D101921A6C42F080521A641B6CD0
:1044000003F080530193019B01262D4D2B68D905A4
:104410001BD5A368274D012B27D12B6F43F0010338
:104420002B67FEF73DFA234D074641F288382B6F84
:104430009B0739D5002E3FF408AF1E4A136C23F0BA
:104440008053136401E70026DFE72B6843F4807391
:104450002B60FEF725FA07462B68DA05D9D4FEF75C
:104460001FFAC01B0228F7D92BE7052B04D12B6FAD
:1044700043F004032B67D0E72A6F22F001022A677A
:104480002A6F22F004022A67002BCAD1FEF708FA2D
:1044900041F2883807462B6F9807CBD5FEF700FA14
:1044A000C01B4045F7D90CE7FEF7FAF9C01B4045A1
:1044B000BDD906E70038024000004742800E47425F
:1044C00000700040234DAB6803F00C03082B3FF451
:1044D000E0AE214E0023022A33602DD1FEF7E0F931
:1044E00007462B68990121D4226AE3691343626A63
:1044F00043EA8213E26A43EA0263226B43EA0273ED
:10450000A26A144C5208013A43EA02436B60012349
:104510003360FEF7C5F9054623689A013FF599AE69
:10452000FEF7BEF9401B0228F6D9CAE6FEF7B8F935
:10453000C01B0228D5D9C4E6FEF7B2F904462B68A1
:104540009B017FF586AEFEF7ABF9001B0228F6D97A
:10455000B7E600BF0038024060004742704702687B
:1045600038B5D36823F0A003D3600446FEF798F96A
:1045700005462368DB689B0601D5002038BDFEF7A1
:104580008FF9401BB0F57A7FF3D9032038BD38B5D9
:104590000368DA685206044601D5002038BD4FF0A2
:1045A000FF32DA60FEF77CF905462368DB685B06BC
:1045B000F3D4FEF775F9401BB0F57A7FF5D90320E7
:1045C00038BD38B50446B8B1437F03F0FF0213B9D4
:1045D0000277FFF7C3FF022363772368CA225A6278
:1045E00053225A622046FFF7D2FF2368054628B1BE
:1045F000FF225A620423637701252EE09A6820691E
:1046000022F4E00222F040029A6062689968024354
:10461000606902430A439A60E2681A611A69A168F4
:1046200042EA01421A61DA6822F08002DA609B688D
:104630009B0605D42046FFF792FF08B12368D7E711
:104640002368A1691A6C22F480221A641A6C0A4346
:104650001A64FF225A6201236377284638BD00237B
:10466000092803D840EA0310C0B270470A38013362
:10467000C0B2F5E7F8B5037F012B05464FF00206FF
:1046800030D00123037746774B78C8788E780C7842
:10469000002A48D1DA0603D523F010030A334B7001
:1046A000FFF7DDFF07464878FFF7D9FF024630469F
:1046B000FFF7D5FF40EA443040EA074040EA0224D1
:1046C0002B68CA225A6253225A622846FFF75FFFBC
:1046D0002B68064640B1FF225A6204236B77002301
:1046E0002B7701263046F8BD24F07F4424F0C00427
:1046F0005C60DA6822F08002DA609B689B060AD46C
:104700002846FFF72CFF30B12B68FF225A620423A2
:104710006B772E77E5E72B68FF225A6201236B77D0
:1047200000232B77DEE71B0243EA0040304340EAD8
:104730004434C5E7F8B5037F012B06460F464FF01A
:1047400002052FD0012303770368457708784D7859
:104750008C789B6842BB13F0400308BFCB70FFF717
:104760007EFF01462846FFF77AFF02462046FFF704
:1047700076FFFB7840EA034040EA014040EA022429
:104780003368CA225A6253225A623046FFF7FFFE4C
:1047900033680546A8B1FF225A62042373770023C9
:1047A000337701252846F8BD13F040034FEA05256D
:1047B00008BFCB7045EA00402043CC7840EA04446F
:1047C000DEE704F07F3424F0FE441C609A68386908
:1047D00022F480229A60FA68996802430A439A6038
:1047E000DA6822F08002DA609B689B060AD43046C1
:1047F000FFF7B5FE30B13368FF225A6204237377A6
:104800003577CEE73368FF225A620123737700239E
:104810003377C7E7030903EB830300F00F0000EBD6
:104820004300C0B27047037F012B4FF002030FD04B
:1048300043770368CA225A6253225A629A6842F046
:1048400020029A60FF225A620123437700230377F4
:104850001846704703685A6822F0E0025A604268BE
:10486000B2F5827F0AD18268B2F5004F02D0B2F56C
:10487000806F03D11A6822F040021A60826AB2F592
:10488000005F09D11A6822F400521204120C1A6057
:104890001A6842F400521A60012380F85130002354
:1048A00080F850300320704770B505460C46164618
:1048B00029688B689B0701D5002070BD621CF8D069
:1048C00024B92846BDE87040FFF7C4BFFDF7E8FFF4
:1048D000801B8442ECD8F4E72DE9F041DDF8188024
:1048E00005460F4616461C462B6898683840B0426D
:1048F00002D10020BDE8F081621CF6D024B9284620
:10490000BDE8F041FFF7A6BFFDF7CAFFA0EB080026
:104910008442E9D8F3E713B50B46009280210022C8
:104920000446FFF7D9FF20B1636D43F020036365B0
:10493000032002B010BD704738B5044600283BD0B4
:1049400090F8513003F0FF021BB980F85020FFF7B8
:10495000F2FF2168A568A06AA269022384F8513099
:104960000B6823F040030B6063682B43E5682B431F
:1049700025692B4365692B43E5692B43256A2B4346
:10498000034302F400752B430B60120C636AB0F50D
:10499000005F02F0040242EA030208BFE36A4A60D1
:1049A00008BF0B61CB6923F40063CB6100200123B6
:1049B000606584F8513038BD012038BD2DE9F341E0
:1049C0001E4690F85030012B04460D46904600F0EC
:1049D000BA80012380F85030FDF762FF074694F853
:1049E0005100C0B2012840F0AC80002D5FD0B8F17A
:1049F000000F5CD0032384F8513000236365A36368
:104A0000A4F83680A387E38763642364A3682268DD
:104A10002563B3F5004F08BF1368A4F8348004BFC2
:104A200043F480431360A36AB3F5005F09D11368B0
:104A300023F400531B041B0C1360136843F400534E
:104A4000136013685B065EBF136843F04003136096
:104A5000E368B3F5006F63683AD11BB1E38E9BB294
:104A6000012B06D135F8023BD360E38E013B9BB2AC
:104A7000E386E38E9BB283B93A4631462046FFF780
:104A800013FF98B93A4631462046FFF744FF002805
:104A900040D020236365012009E023689A689007CD
:104AA00003D535F8022BDA60DFE74EB90320012386
:104AB00084F85130002384F8503002B0BDE8F08112
:104AC000711CD6D0FDF7ECFEC01B8642D1D8EDE7B5
:104AD0001BB1E38E9BB2012B06D115F8013B13737A
:104AE000E38E013B9BB2E386E38E9BB2002BC3D0E7
:104AF00023689A68920703D515F8012B1A73EFE71C
:104B0000002ED3D0731CEFD0FDF7CAFEC01B864227
:104B1000EAD8CBE7A36833B901932368DA68019236
:104B20009B680193019BA36AB3F5005F01BF2268F4
:104B3000136843F480531360606D003018BF012088
:104B4000B5E70220B3E70220B7E72DE9F04385B0CF
:104B500099460023ADF80A3090F850300C9E012B96
:104B600004460D46904600F04581012380F8503000
:104B7000FDF796FE94F851306168DBB2012B0746D1
:104B80000AD0B1F5827F40F03381A268002A40F05C
:104B90002F81042B40F02C81002D00F01B81B8F1F7
:104BA000000F00F01781B9F1000F00F0138194F8A5
:104BB0005130C4F83880012B04BF052384F85130EC
:104BC0000023636523646364A36AA4F83E90B3F58D
:104BD000005FA4F83C902563A4F83690A4F83490C4
:104BE000236809D11A6822F400521204120C1A60C8
:104BF0001A6842F400521A601A6850065EBF1A68BA
:104C000042F040021A60E268B2F5006F6BD119B150
:104C1000E28E92B2012A06D135F8022BDA60E38ED9
:104C2000013B9BB2E3864FF00109E38E9BB2B3B91F
:104C3000E38F9BB29BB9A36AB3F5005F40F0AE80EF
:104C400001220097334611462046FFF745FE002813
:104C500000F09D80636D43F00203636535E0B9F1B8
:104C6000000F1BD0E38E9BB2C3B1226893689907F3
:104C700014D535F8023BD360E38E013B9BB2E3864B
:104C8000E38E1FFA83F9B9F1000F29D1A16AB1F5BA
:104C9000005F03D1116841F480511160E38F9BB232
:104CA00063B123689A68D20708D5DB6828F8023B0D
:104CB000E38F013B9BB2E3874FF00109701CB4D036
:104CC000FDF7EEFDC01B8642AFD80325012384F813
:104CD0005130002384F85030284605B0BDE8F083F9
:104CE0004FF00009DAE719B1E28E92B2012A06D13B
:104CF00015F8012B1A73E38E013B9BB2E3864FF04C
:104D00000109E38E9BB21BB9E38F9BB2002B92D0BB
:104D1000B9F1000F21D0E38E9BB2F3B123689A68FA
:104D200091071AD529781973E38E013B9BB2E3866C
:104D3000E38E1FFA83F96A1CB9F1000F0AD1A16A48
:104D4000B1F5005F04D12068016841F48051016031
:104D5000154602E015464FF00009E38F9BB273B190
:104D600023689A68D2070AD5DB6888F80030E38F99
:104D7000013B9BB2E38708F101084FF00109731C66
:104D8000BFD0FDF78DFDC01B8642BAD89DE72368D2
:104D9000DB689BB2ADF80A30BDF80A30226895682E
:104DA00015F0100507D0636D43F0020363654FF6FD
:104DB000EF73936001253A4631462046FFF774FDB4
:104DC000002882D13A4631462046FFF7A4FD18B1AB
:104DD00020236365012579E7A368002B7FF476AF74
:104DE00003932368DA6803929B680393039B6DE740
:104DF00002256BE702256FE72DE9FF411D460023E1
:104E0000ADF80E304368B3F5827F04460E469046F7
:104E10000CD1836853B9042380F8513013460095B0
:104E20000A46FFF792FE04B0BDE8F08194F85030D6
:104E3000012B00F0CD80012384F85030FDF730FDC8
:104E4000074694F85100C0B2012840F0BF80002E00
:104E50007DD0B8F1000F7AD0042384F851300023BC
:104E600063652363A4F83E80A386E38623646364BA
:104E7000A36AA663B3F5005FA4F83C8023680DD154
:104E80001A6822F400521204120C1A601A6842F4D2
:104E900000521A60E28F013A92B2E287A268B2F53C
:104EA000004F02BF1A6822F480421A601A68510645
:104EB0005EBF1A6842F040021A60E368CBB1E38F2C
:104EC0009BB2D3B123689A68D0074FD5DB6826F828
:104ED000023BE38F013B9BB2E387F0E723689A68CC
:104EE000D20732D51B7B06F8013BE38F013B9BB217
:104EF000E387E38F9BB2002BF0D1A36AB3F5005F89
:104F000045D12268136843F480531360012200974F
:104F10002B4611462046FFF7DFFCB8B9E368B3F52E
:104F2000006F23684FF001020BBFDB681B7B3380EF
:104F3000337000972B4611462046FFF7CDFCF8B1A1
:104F4000636D43F00203636500E03DB90320012374
:104F500084F85130002384F8503064E76B1CC8D0CB
:104F6000FDF79EFCC01B8542C3D8EFE7002DEDD0B6
:104F7000691CA4D0FDF794FCC01B85429FD8E5E7CF
:104F80002368DB689BB2ADF80E30BDF80E30636865
:104F9000B3F5827F23680AD1A268B2F5004F02D030
:104FA000B2F5806F03D11A6822F040021A609A6845
:104FB000D20606D5626D42F0020262654FF6EF72CC
:104FC0009A60606D003018BF0120C0E70220BEE784
:104FD000022028E7704700002E4A0368904212D052
:104FE000B0F1804F0FD0A2F57C4290420BD002F579
:104FF0008062904207D002F58062904203D002F5B1
:10500000784290421DD14A6823F070031343214A2D
:10501000904204D1CA6823F44073134328E0B0F1EE
:10502000804FF7D01C4A9042F4D002F58062904243
:10503000F0D002F580629042ECD002F578429042C6
:10504000E8D0164A9042E5D002F580629042E1D065
:1050500002F580629042DDD0A2F598329042D9D01C
:1050600002F580629042D5D002F580629042D1D0A4
:1050700003608B68C3620B688362064B984206D05C
:1050800003F58063984202D00123436170470B69A6
:105090000363F9E7000001400004004000400140C4
:1050A00010B50446A0B190F8393003F0FF021BB9E7
:1050B00080F83820FFF78EFF022384F8393020680B
:1050C000211DFFF789FF012384F83930002010BD2E
:1050D000012010BD036A10B501248C4023EA0403AB
:1050E0000362036A8A401A43026210BD10B5044687
:1050F00001220068FFF7EEFF2368084A934203D0BD
:1051000002F58062934203D15A6C42F400425A6421
:105110001A6842F001021A60002010BD0000014030
:10512000FFF7E4BF2DE9F0470668C2683369C1693B
:1051300023F4405313433361044683680069F268E3
:105140000343606922F41642034322F00C020B432E
:105150001343F3607369A26923F440731343B1F5F9
:10516000004F73617A4B7CD19E4203D003F580637C
:105170009E4244D1FEF7DAFD192505FB00F3606875
:105180004FF064094000B3FBF0F3B3FBF9F34FEACF
:105190000318FEF7CBFD636868435B00B0FBF3F7D1
:1051A000FEF7C4FD636868435B00B0FBF3F3B3FB39
:1051B000F9F309FB1373DB003233B3FBF9F35B0044
:1051C00003F4F877FEF7B2FD626868435200B0FB63
:1051D000F2FAFEF7ABFD636868435B00B0FBF3F3E4
:1051E000B3FBF9F309FB13A3DB003233B3FBF9F391
:1051F00003F0070343443B44B360BDE8F087FEF788
:1052000085FD192505FB00F360684FF06409400037
:10521000B3FBF0F3B3FBF9F34FEA0318FEF776FDA7
:10522000636868435B00B0FBF3F7FEF76FFD6368EC
:1052300068435B00B0FBF3F3B3FBF9F309FB1373B3
:10524000DB003233B3FBF9F35B0003F4F877FEF7CE
:105250005DFD626868435200B0FBF2FAFEF756FD4E
:10526000B9E79E4202D03B4B9E4240D1FEF75EFD25
:10527000676819254FF0640905FB00F3BF00B3FB15
:10528000F7F3B3FBF9F31F01FEF750FD63686843C2
:105290009B00B0FBF3F8FEF749FD636868439B0091
:1052A000B0FBF3F3B3FBF9F309FB13831B013233B8
:1052B000B3FBF9F303F0F008FEF738FD62686843CA
:1052C0009200B0FBF2FAFEF731FD636868439B0081
:1052D000B0FBF3F3B3FBF9F309FB13A31B01323368
:1052E000B3FBF9F303F00F0343EA080383E7FEF788
:1052F0000DFD676819254FF0640905FB00F3BF0039
:10530000B3FBF7F3B3FBF9F31F01FEF7FFFC636890
:1053100068439B00B0FBF3F8FEF7F8FC6368684352
:105320009B00B0FBF3F3B3FBF9F309FB13831B0101
:105330003233B3FBF9F303F0F008FEF7E7FC6268E1
:1053400068439200B0FBF2FAFEF7E0FCBDE700BF55
:105350000010014000140140704710B5044640B3EE
:1053600090F8393003F0FF021BB980F83820FFF7BE
:10537000F3FF2268242384F83930D36823F40053E0
:10538000D3602046FFF7CEFE23681A6922F49042CC
:105390001A615A6922F02A025A61DA6842F400520C
:1053A000DA6000202023E06384F8393084F83A3052
:1053B00010BD012010BD00000FB407B5064B074912
:1053C0001B6805AAD868019205F0E8F903B05DF8FA
:1053D00004EB04B0704700BFF0020020065901083A
:1053E0000268136823F0400310B513600446FFF70A
:1053F000A3FA10B1054801F08DFCA36823B9226817
:10540000136843F04003136010BD00BF3F5901080B
:105410002DE9F04F884687B004465949BDF94060F0
:10542000404615461F4600F069FD5649814628460C
:1054300000F064FD54490190384600F05FFD534987
:105440008246304600F05AFD019B83461946484685
:1054500000F02EFD59468146504600F029FD0146D8
:10546000484600F025FDE065013004D16F2248492F
:10547000484800F0D1FE484BE26D9A424FF00003DD
:105480004BD10293454B5A6C42F480525A645B6C88
:1054900003F480530293029B232384F85830384945
:1054A000404600F0E1FC3749284600F0DDFC364973
:1054B000384600F0D9FC731CA4F86050A4F8628050
:1054C000A4F86470A4F8666057D03049304600F004
:1054D000CBFC4FF48023A361E36D236001354FF4CF
:1054E000827308BF4FF4004263604FF03803E361FA
:1054F00008BFA2604FF000034FF0070218BFA3607F
:1055000063612361A362E262E36023626362204617
:10551000FFF766FF07B0BDE8F08F21498A420CD142
:1055200003931E4B1A6C42F480421A641B6C03F402
:1055300080430393039B2423AFE71A498A420CD18B
:105540000493164B1A6C42F400421A641B6C03F469
:1055500000430493049B33239FE713498A429ED15F
:1055600005930E4B5A6C42F400525A645B6C03F480
:1055700000530593059B54238FE74FF40073AAE76C
:1055800038510108E4500108BC51010828520108B3
:1055900055590108B2590108003001400038024055
:1055A00000380040003C00400034014010290CBF8E
:1055B0004FF400610021012A10B50446C16023D0D8
:1055C000022A24D032BB02616261A269B2F5007F77
:1055D00005D0002B14BF00224FF48022A261002BC3
:1055E00014BF00234FF48273636008D0A368B3F53F
:1055F000004F04D10948FFF7DFFE0023A3602046D7
:10560000BDE81040FFF7ECBE00210161DCE702615C
:105610000022D9E7022202610122D5E706590108DA
:1056200070B504460E46FEF71DFA0023022290FBD9
:10563000F2F0B042DDB203DD0133082B09D10725BA
:10564000054B33F81530E3612046BDE87040FFF7A5
:10565000C7BE90FBF2F0ECE7F658010807B5836887
:105660000191B3F5004F024607D10A23012201A997
:10567000FFF7A4F903B05DF804FBC36D99688907CF
:10568000FCD5D168019AB1F5006F0CBF92B2D2B2CD
:10569000DA609A68D207FCD5D868B1F5006F0CBF04
:1056A00080B2C0B2E6E72DE9F84F0A9E84689DF803
:1056B0002CB09642354680468A4617469946B8BF72
:1056C000154694B9AC4202DB2846BDE8F88FBC42CF
:1056D000B4BF1AF8041059464046FFF7BFFFB44262
:1056E000B8BF09F804000134ECE73AB10A23534388
:1056F00092B2FFF763F9002818BF0025002EE3D00F
:105700000A237343B2B249464046FFF775FB0028AF
:1057100018BF0025D8E700000D4AD2F8883043F4BE
:105720007003C2F888300B4B1A68002142F0010266
:105730001A6099601A6822F0847222F480321A602A
:10574000054A5A601A6822F480221A60D9607047AC
:1057500000ED00E00038024010300024F0B5ADB09C
:105760002C4B002101911A6C42F080521A641B6C80
:1057700003F080530193019B274B02911A6842F476
:1057800040421A601B6803F440430293029B0123CA
:105790000893002839D14FF4803309934FF48003E4
:1057A0000F934FF4B47302250826119308A807231A
:1057B0000E951096129513931495FEF735FD38BB90
:1057C000FEF7CEF9074618BB4FF4C0731C934FF495
:1057D0008073159315A84FF000632A931B961D96AE
:1057E000FEF7D2FA0F2303934FF4A053069305213B
:1057F0004FF4805303A8049505970793FEF7ECF93F
:10580000B0FA80F040092DB0F0BD4FF4A023C4E7FA
:105810000020F8E7003802400070004030B5ADB01D
:105820000023294A0193116C41F080511164126CDC
:1058300002F080520192019A244A0293116841F4C5
:10584000404111601268099302F440420292029AA8
:105850000F9303224FF4B4730892012202240B9297
:1058600011931022062308A80C920E941092129401
:105870001393FEF7D9FC10B100202DB030BDFEF718
:105880006FF905460028F7D108231B931D934FF4A9
:105890008073C022159315A84FF000631C922A93C1
:1058A000FEF772FA0F2303934FF4A05306930521DA
:1058B0004FF4805303A8049405950793FEF78CF9E1
:1058C000B0FA80F04009D8E700380240007000408C
:1058D00008B50120FFF742FF38B9FFF79FFF20B955
:1058E0000248BDE8084001F015BA08BDCD590108CD
:1058F000174A1849936803F00C03042B10B50DD018
:10590000082B0DD0144B0B60114B144A9B68C3F34A
:105910000313D25C0B68D3400B6010BD104BF2E751
:105920005468506852686302C2F3881200F03F0066
:105930004CBF0B4B084BB3FBF0F35343044A526884
:10594000C2F3014201325200B3FBF2F3DBE700BFC6
:1059500000380240D80200200024F400E159010878
:1059600000127A00074B084A13601A69910707D59D
:10597000DA68920704D56FF002021A6100F08AB962
:10598000704700BF000C0040041B00200048704717
:10599000FC59010830B589B001A903A8FEF7D6F972
:1059A000FEF7B4F9002302931E4B01901A6C1E4CB3
:1059B00042F008021A641A6C02F008020292029A7B
:1059C0001A6A42F008021A621A6A22F008021A627F
:1059D000069AA3F50B3323604FF0FF33E360134BBC
:1059E000F2B9B0FBF3F00138002560600E48256184
:1059F000A5606561FFF754FB0D4B0E4A9B680A4892
:105A0000C3F808210C4B4FF480225A602946FFF757
:105A100087FB2268D36823F00203D36009B030BD4E
:105A20004000DEE700380240041B002040420F0027
:105A300000ED00E06559000800E100E0014B586A04
:105A4000704700BF000C0040054B1B686FF002025E
:105A500058631A61DA6842F00202DA60704700BFE8
:105A6000041B0020064B1B686FF002021A615A6982
:105A700042F002025A61DA6842F00202DA607047CC
:105A8000041B0020034B1A68D36823F00203D36081
:105A9000704700BF041B0020FFF7F4BF024B1B68D8
:105AA0006FF002021A617047041B002003689B68B4
:105AB00018470000094B10B5002203600023C0E91D
:105AC0000223002303614361044600F0DFF8044928
:105AD000A06100F059FF204610BD00BF0C5A01081C
